:100000006FEF03F00000000000EF00F000000000C0
:0A0010000000000000000000F3D71C
:10001C000F0E0C6E470E0D6E0D2EFED70C2EFCD750
:06002C00000000001200BC
:06003200000000001200B6
:0A003800210E0D6E0D2EFED71200F2
:100042000B6A0A6A096A086A0E6A0334083604509F
:10005200085E0550D8A0053C095E0650D8A0063CB3
:100062000A5E0750D8A0073C0B5EE86AD8A0010ED2
:100072000E5E0336070E0C6E0334083609360A3656
:100082000B360E36045003A012D0085E0550D8A0DD
:10009200053C095E0650D8A0063C0A5E0750D8A06F
:1000A200073C0B5EE86AD8A0010E0E5E11D008264E
:1000B2000550D8B0053C09260650D8B0063C0A26A1
:1000C2000750D8B0073C0B26E86AD8B0010E0E26BE
:1000D20003360C2ED1D70234083609360A360B36CF
:1000E2000E36045003A012D0085E0550D8A0053C7D
:1000F200095E0650D8A0063C0A5E0750D8A0073C0D
:100102000B5EE86AD8A0010E0E5E11D008260550DB
:10011200D8B0053C09260650D8B0063C0A2607503E
:10012200D8B0073C0B26E86AD8B0010E0E2602367C
:10013200070E0C6E0234083609360A360B360E36B6
:10014200045002A012D0085E0550D8A0053C095EFA
:100152000650D8A0063C0A5E0750D8A0073C0B5EAA
:10016200E86AD8A0010E0E5E11D008260550D8B05C
:10017200053C09260650D8B0063C0A260750D8B0DE
:10018200073C0B26E86AD8B0010E0E2602360C2E6A
:10019200D1D70134083609360A360B360E360450EA
:1001A20002A012D0085E0550D8A0053C095E065098
:1001B200D8A0063C0A5E0750D8A0073C0B5EE86A4E
:1001C200D8A0010E0E5E11D008260550D8B0053C0D
:1001D20009260650D8B0063C0A260750D8B0073C7C
:1001E2000B26E86AD8B0010E0E260136070E0C6EF9
:1001F2000134083609360A360B360E36045001A091
:1002020012D0085E0550D8A0053C095E0650D8A061
:10021200063C0A5E0750D8A0073C0B5EE86AD8A0ED
:10022200010E0E5E11D008260550D8B0053C0926F5
:100232000650D8B0063C0A260750D8B0073C0B2619
:10024200E86AD8B0010E0E2601360C2ED1D7003442
:10025200083609360A360B360E36045001A012D083
:10026200085E0550D8A0053C095E0650D8A0063CA1
:100272000A5E0750D8A0073C0B5EE86AD8A0010EC0
:100282000E5E11D008260550D8B0053C092606504E
:10029200D8B0063C0A260750D8B0073C0B26E86ABD
:1002A200D8B0010E0E260036070E0C6E003408364A
:1002B20009360A360B360E36045000A012D0085EFC
:1002C2000550D8A0053C095E0650D8A0063C0A5E3F
:1002D2000750D8A0073C0B5EE86AD8A0010E0E5E5C
:1002E20011D008260550D8B0053C09260650D8B0D2
:1002F200063C0A260750D8B0073C0B26E86AD8B05D
:10030200010E0E2600360C2ED1D700B00ED00450AE
:1003120008260550D8B0053C09260650D8B0063C40
:0C0322000A260750D8B0073C0B2612003A
:10032E0048BE02D0839E01D0838E48BC02D0839CEF
:10033E0001D0838C48BA02D0839A01D0838A48B800
:10034E0002D0839801D0838815B002D0848401D066
:10035E008494848267DE849248B602D0839E01D054
:10036E00838E48B402D0839C01D0838C48B202D0D5
:10037E00839A01D0838A48B002D0839801D08388B3
:10038E0015B002D0848401D0849484824BDE849292
:0C039E0015A002D03CDE01D048DE1200A9
:0C03AA0015903EC048F0BEDF1580120028
:1003B600446A456A000E455C02E10A0E445C0BE2A3
:1003C60044504224E16E45504320E26E200EE66E14
:1003D600444A452AEFD744504224E16E4550432013
:1003E600E26EE66A010E445E000E455A445042240F
:1003F600466E45504320476E0A0E046E000E056E8B
:10040600066E076E3EC000F03FC001F040C002F02D
:1004160041C003F013DE08C000F009C001F00AC0B5
:1004260002F00BC003F0300E002646C0E1FF47C0C5
:10043600E2FF00C0E6FF0A0E046E000E056E066EB1
:10044600076E3EC000F03FC001F040C002F041C060
:1004560003F0F4DD00C03EF001C03FF002C040F002
:1004660003C041F0000E046E031808E104500218A0
:1004760005E10450011802E10050000A01E105D02F
:0C048600010E445E000E455AB1D7120072
:10049200386A396A30C03AF031C03BF032C03CF0C1
:1004A20033C03DF0800E3318006E800E005C08E110
:1004B200000E325C05E1000E315C02E1000E305CA0
:1004C20010E2010E386E000E396E3A6A3B6A3C6ADF
:1004D2003D6A30503A5E31503B5A32503C5A3350AA
:1004E2003D5A3AC03EF03BC03FF03CC040F03DC0F8
:1004F20041F034C042F035C043F05CDF0B0E366E83
:10050200000E376E000E006E3750005C02E136506E
:10051200000819E236503424E16E37503520E26E7D
:10052200010E365C006E000E3758016E0050342406
:10053200E96E01503520EA6EEECFE6FF010E365E1F
:10054200000E375ADFD734C0E1FF35C0E2FF200E7C
:10055200E66E385039101AE0366A376A365034245B
:10056200E96E37503520EA6EEE50200A03E1364A32
:10057200372AF4D7010E365E000E375A365034242D
:0E058200E16E37503520E26E2D0EE66E12004F
:100590000FD0800E306E19D0C00E306E16D0940E73
:1005A000306E13D0D40E306E10D0800E306E0DD061
:1005B0003050010AEEE03050020AEEE03050030AFB
:1005C000EEE03050040AEEE0F0D73104006E305017
:1005D000002600C030F000C048F0A9DE1590346A53
:1005E00034503224E96E000E3320EA6EEE520BE0F6
:1005F00034503224E96E000E3320EA6EEECF3EF026
:0A060000D4DE342AEDD71580120075
:10060A00969296949598959A959C959E84928494A0
:10061A00839E839C839A8398FCDCFBDCFADC838AC6
:10062A008388848201DD8492F4DC8482FDDC8492F6
:10063A00F0DC8482F9DC8492ECDC83988482F4DC3A
:10064A008492E7DC8482F0DC8492839A838E8482AB
:10065A00EBDC8492DEDC839E83888482E5DC8492F0
:10066A0083988482E1DC8492D4DC8482DDDC849207
:10067A0083888482D9DC8492CCDC83988482D4DC1B
:10068A008492838E838C838A83888482CDDC84924D
:06069A00C0DC1580120017
:1006A0002A6A2B6A2C6A2D6A306A316A326A336A86
:1006B0002EC034F02FC035F0ECDE010E306E040E8B
:0E06C000316E2EC032F02FC033F062DF120018
:1006CE000900F5CFE6FF0006FBE10106F9E1120095
:1006DE00226A236A246A256A266A276A286A296A90
:1006EE00C26A060EC16E010E936E010E946E828466
:1006FE0085DF020E0B6E040E0C6EBA0E0D6E0D2EF5
:10070E00FED70C2EFCD70B2EFAD70000010E486E2A
:10071E0007DE020E0B6E040E0C6EBA0E0D6E0D2E53
:10072E00FED70C2EFCD70B2EFAD700000C0E486EFF
:10073E00F7DD020E0B6E040E0C6EBA0E0D6E0D2E44
:10074E00FED70C2EFCD70B2EFAD7000081B00DD0A1
:10075E0022C02AF023C02BF026C02CF027C02DF08B
:10076E00160E2E6E000E2F6E94DF82B001D0FDD7C6
:10077E00030E0C6E970E0D6E0D2EFED70C2EFCD7A3
:10078E000000000082A001D0FDD7030E0C6E970E64
:10079E000D6E0D2EFED70C2EFCD700000000010EA4
:1007AE002226000E232224222522000E006E25185A
:1007BE0008E10050241805E10050231802E12250F0
:1007CE00070A20E1226A236A246A256A010E262678
:1007DE00000E27222822292226C030F027C031F011
:1007EE0028C032F029C033F0160E346E000E356E6E
:1007FE0049DE010E306E040E316E160E326E000E94
:08080E00336EBFDEA3D7FFD754
:020000040030CA
:0D000100220D0EFF0080FF0FC00FE00F402A
:00000001FF
