:10000000CFEF03F00000000000EF00F00000000060
:0A0010000000000000000000F3D71C
:0A001C00210E0D6E0D2EFED712000E
:100026000F0E0C6E470E0D6E0D2EFED70C2EFCD746
:06003600000000001200B2
:06003C00000000001200AC
:10004200086A096A100E0C6E01340836093604502B
:10005200085E0550D8A0053C095ED8B007D0045010
:1000620008260550D8B0053C0926D890003601363E
:060072000C2EEAD712007B
:100078000001A3BF02D0839E01D0838EA3BD02D00E
:10008800839C01D0838CA3BB02D0839A01D0838A3E
:10009800A3B902D0839801D083888BB102D084841D
:1000A80001D084948482C6DF8492A3B702D0839E51
:1000B80001D0838EA3B502D0839C01D0838CA3B3D7
:1000C80002D0839A01D0838AA3B102D0839801D049
:1000D80083888BB102D0848401D084948482AADF7F
:0E00E80084928BA102D09BDF01D094DF120026
:0E00F60000018B919CC0A3F0BCDF8B81120037
:100104000134083609360450085E0550D8A0053C71
:10011400095E003601360F0E0C6E013408360936BE
:10012400045000A006D0085E0550D8A0053C095E26
:1001340005D008260550D8B0053C092600360136FE
:100144000C2EEBD700B006D0045008260550D8B0CA
:08015400053C09260000120021
:10015C000001A06B050EA05D0AE2A0519E25E16E88
:10016C00000E9F21E26E200EE66EA02BF3D7A0515D
:10017C009E25E16E000E9F21E26EE66AA007A0515B
:10018C009E25A16F000E9F21A26F0A0E046E000E19
:10019C00056E9CC000F09DC001F04DDF08C000F062
:1001AC0009C001F0300E0026A1C0E1FFA2C0E2FFA1
:1001BC0000C0E6FF0A0E046E000E056E9CC000F037
:1001CC009DC001F038DF00C09CF001C09DF0000E16
:1001DC00011802E1000E001801E102D0A007CFD7F0
:0201EC001200FF
:1001EE000450000A08E10550000A05E1FF0E006EFA
:1001FE007F0E016E57D00D6A096A086A0150001011
:10020E00D8B4000C015005180A6E0ABE0D1E0B6AFA
:10021E0005AE05D0041E051E042AD8B4052A01AE6B
:10022E0005D0001E011E002AD8B4012A0150051067
:10023E000A6E0ABE10D05FDF0BB020D00DAE000CE0
:10024E00001E011E002AD8B4012A081E091E082A03
:10025E00D8B4092A000C05AE0DD001BE07D001504E
:10026E00096E0050086E016A006AE8D7016A006ADA
:10027E00002A000C011E001E0B2ADDD7082AD8B456
:10028E00092A0450085CD8A4D9D70550095CD8A413
:10029E00D5D7096A086A002AD8B4012A01AECED78A
:0602AE000000FF0C12002D
:1002B4000B6A0A6A096A00500402F4CF09F0F3CF0A
:1002C40008F001500502F4CF0BF0F3CF0AF0005010
:1002D4000502F3500926F4500A22E86A0B22015061
:1002E4000402F3500926F4500A22E86A0B2208C0DB
:1002F40000F009C001F00AC002F00BC003F01200C4
:1003040010D0800E0001926F1AD0C00E926F17D0D9
:10031400940E926F14D0D40E926F11D0800E926FFF
:100324000ED000019251010AECE09251020AEDE074
:100334009251030AEDE09251040AEDE0EFD79305E0
:10034400006E9251002600C092F000C0A3F092DE2D
:100354008B91966B96519425E96E000E9521EA6E69
:10036400EE520BE096519425E96E000E9521EA6E4B
:0E037400EECF9CF0BEDE962BEDD78B811200F3
:0C0382000E0E0D6E0D2EFED700001200B6
:10038E000001986B996B92C09AF093C09BF0800E0F
:10039E009319006E800E005C02E1000E925D0BE27E
:1003AE00010E986F000E996F925100089A6F93C0CC
:1003BE009BF0000E9B579AC09CF09BC09DF094C082
:1003CE009EF095C09FF0C3DE060E966F000E976FDF
:1003DE00000E006E9751005C02E19651000819E282
:1003EE0096519425E16E97519521E26E010E965D20
:1003FE00006E000E9759016E00509425E96E015063
:10040E009521EA6EEECFE6FF010E965F000E975B2A
:10041E00DFD794C0E1FF95C0E2FF200EE66E985143
:10042E0099111AE0966B976B96519425E96E975138
:10043E009521EA6EEE50200A03E1964B972BF4D7E6
:10044E00010E965F000E975B96519425E16E9751C3
:0A045E009521E26E2D0EE66E1200ED
:100468000001946B956B92C003F093C004F092C0A6
:1004780005F093C006F003C0E9FF04C0EAFFEE50A0
:10048800200A04E19451951101E110D0010E946FF6
:10049800000E956F03C0E9FF04C0EAFF05C0E1FF45
:1004A80006C0E2FFEECFE6FF054A062A03C001F0C8
:1004B80004C002F0034A042A01C0E9FF02C0EAFFAF
:1004C800EE50000AD8E192C000F093C001F012008B
:1004D800C26AC00EC212C18CC18E90C000F0003634
:1004E800009000360090003600900050C212C28082
:1004F80044DFC284C2A401D0FDD7C4CF01F0006A92
:0C050800C3500012000E0112C29012003D
:10051400969296949598959A959C959E8492849497
:10052400839E839C839A83987CDD7BDD7ADD838A3A
:100534008388848281DD849274DD84827DDD84926B
:1005440070DD848279DD84926CDD8398848274DD2D
:10055400849267DD848270DD8492839A838E8482A0
:100564006BDD84925EDD839E8388848265DD849264
:100574008398848261DD849254DD84825DDD84927B
:100584008388848259DD84924CDD8398848254DD8F
:100594008492838E838C838A838884824DDD8492C3
:0805A40040DD00018B81120013
:1005AC000900F5CFE6FF0006FBE10106F9E11200B8
:1005BC00010E0001A36F5ADD90C000F091C001F054
:1005CC00090E046E000E056E6FDE050E046E000E35
:1005DC00056E07DE200E0026000E012200C090F0F2
:1005EC0001C091F000C092F001C093F07B0E0001AD
:1005FC00946F000E956FC5DE7B0E926F000E936F9D
:10060C002DDF81A41CD0010E926F010E936F370E5B
:10061C00946F000E956F70DE020E926F010E936F49
:10062C007B0E946F000E956F67DE020E926F060EB6
:10063C00936F480E946F000E956F5EDEE2D7060E38
:10064C000B6E130E0C6EAD0E0D6E0D2EFED70C2E0A
:10065C00FCD70B2EFAD700000000010EA36F06DDAD
:02066C0012007A
:10066E00010E0001A36F01DD90C092F091C093F0D6
:10067E007B0E946F000E956F83DE7B0E926F000ED5
:10068E00936FEBDE81A41CD0010E926F010E936F5F
:10069E00150E946F000E956F2EDE020E926F010EE8
:1006AE00936F7B0E946F000E956F25DE020E926F88
:1006BE00060E936F260E946F000E956F1CDEE2D71A
:1006CE00060E0B6E130E0C6EAD0E0D6E0D2EFED7AE
:1006DE000C2EFCD70B2EFAD700000000010EA36FD4
:0406EE00C4DC120056
:1006F200010E0001A36FBFDC820E0C6EDD0E0D6ECB
:100702000D2EFED70C2EFCD700000000110E9025F6
:10071200006E010E9121016E00C090F001C091F0B7
:1007220000C092F001C093F07B0E946F000E956FA3
:100732002DDE7B0E926F000E936F95DE81A41CD08E
:10074200010E926F010E936F590E946F000E956F0A
:10075200D8DD020E926F010E936F7B0E946F000E26
:10076200956FCFDD020E926F060E936F6A0E946F35
:10077200000E956FC6DDE2D7060E0B6E130E0C6EE1
:10078200AD0E0D6E0D2EFED70C2EFCD70B2EFAD70A
:0C07920000000000010EA36F6EDC1200DE
:10079E00BDEC04F0C26A060EC16E956A966A040E2E
:1007AE00926E070E936EAFDE020E0B6E040E0C6E83
:1007BE00BA0E0D6E0D2EFED70C2EFCD70B2EFAD7C1
:1007CE000000010EA36F51DC020E0B6E040E0C6EB8
:1007DE00BA0E0D6E0D2EFED70C2EFCD70B2EFAD7A1
:1007EE0000000C0EA36F41DC020E0B6E040E0C6E9D
:1007FE00BA0E0D6E0D2EFED70C2EFCD70B2EFAD781
:10080E000000820EC16ED10EC26E0001010E926FFB
:10081E00010E936F310E946F000E956F6CDD020E0C
:10082E00926F010E936F530E946F000E956F63DDF2
:10083E00010E926F070E936F750E946F000E956FEB
:10084E005ADD020E906F41DE00C08CF001C08DF0BB
:10085E00F40E046E010E056E26DD0A0E026E00C049
:10086E008EF001C08FF0025006E000018F338E3300
:10087E008F9FFF0FF9D781B011D0020E0B6E860E2F
:10088E000C6E990E0D6E0D2EFED70C2EFCD70B2E68
:10089E00FAD78EC090F08FC091F0E2DE81B211D007
:1008AE00020E0B6E860E0C6E990E0D6E0D2EFED771
:1008BE000C2EFCD70B2EFAD78EC090F08FC091F075
:1008CE0076DE81B411D0020E0B6E860E0C6E990E72
:1008DE000D6E0D2EFED70C2EFCD70B2EFAD78EC01A
:1008EE0090F08FC091F0FEDE020E0B6E040E0C6EB9
:1008FE00BA0E0D6E0D2EFED70C2EFCD70B2EFAD780
:06090E00000083D7FFD7B3
:10097A0010EE15F0660E006E010E016E140EF66E84
:0E098A00090EF76E000EF86ED6EC02F01200A9
:1009140054656D70657261747572615B6F435D3AA5
:0109240000D2
:0B0925005242322D564F4C54415200FC
:060930005242302D43008D
:1009360054656D70657261747572615B6F465D3A80
:0109460000B0
:0B0947005242322D564F4C54415200DA
:060952005242312D460067
:1009580054656D70657261747572615B6F4B5D3A59
:01096800008E
:0B0969005242322D564F4C54415200B8
:060974005242322D4B003F
:020000040030CA
:0D000100220D0EFF0080FF0FC00FE00F402A
:00000001FF
