:10000000A5EF01F00000000000EF00F0000000008C
:0A0010000000000000000000F3D71C
:10001C000134083609360450085E0550D8A0053C5A
:10002C00095E003601360F0E0C6E013408360936A7
:10003C00045000A006D0085E0550D8A0053C095E0F
:10004C0005D008260550D8B0053C092600360136E7
:10005C000C2EEBD700B006D0045008260550D8B0B3
:08006C00053C0926000012000A
:100074000450000A08E10550000A05E1FF0E006E75
:100084007F0E016E57D00D6A096A086A015000108C
:10009400D8B4000C015005180A6E0ABE0D1E0B6A76
:1000A40005AE05D0041E051E042AD8B4052A01AEE7
:1000B40005D0001E011E002AD8B4012A01500510E3
:1000C4000A6E0ABE10D0A8DF0BB020D00DAE000C13
:1000D400001E011E002AD8B4012A081E091E082A7F
:1000E400D8B4092A000C05AE0DD001BE07D00150CA
:1000F400096E0050086E016A006AE8D7016A006A56
:10010400002A000C011E001E0B2ADDD7082AD8B4D1
:10011400092A0450085CD8A4D9D70550095CD8A48E
:10012400D5D7096A086A002AD8B4012A01AECED705
:060134000000FF0C1200A8
:10013A001ED03F0E006E39D0060E006E36D05B0E12
:10014A00006E33D04F0E006E30D0660E006E2DD08A
:10015A006D0E006E2AD07D0E006E27D0070E006E3F
:10016A0024D07F0E006E21D06F0E006E1ED01F505D
:10017A00000ADFE01F50010ADFE01F50020ADFE039
:10018A001F50030ADFE01F50040ADFE01F50050A70
:10019A00DFE01F50060ADFE01F50070ADFE01F50AA
:0C01AA00080ADFE01F50090ADFE0120025
:1001B600806AE80E046E030E056E1DC000F01EC0B8
:1001C60001F055DF0A0E046E000E056E50DF08C002
:1001D60000F009C001F000C01FF0ACDF00C083FFD3
:1001E60080840D0E0C6EFB0E0D6E0D2EFED70C2EA2
:1001F600FCD7000000008094640E046E000E056EAD
:100206001DC000F01EC001F032DF0A0E046E000EA3
:10021600056E2DDF08C000F009C001F000C01FF018
:1002260089DF00C083FF80860D0E0C6EFB0E0D6EFF
:100236000D2EFED70C2EFCD70000000080960A0E6D
:10024600046E000E056E1DC000F01EC001F00FDF2B
:100256000A0E046E000E056E0ADF08C000F009C023
:1002660001F000C01FF066DF00C083FF80880D0E1E
:100276000C6EFB0E0D6E0D2EFED70C2EFCD700005D
:10028600000080980A0E046E000E056E1DC000F078
:100296001EC001F0ECDE08C000F009C001F000C08D
:1002A6001FF048DF00C083FF808A0D0E0C6EFB0E28
:1002B6000D6E0D2EFED70C2EFCD700000000809A86
:0202C600120024
:1002C8001B6A1C6A81A434D0800E1C18006E800E34
:1002D800005C02E10A0E1B5C2BE219C01DF01AC07B
:1002E8001EF065DF8282060E0B6E130E0C6EAD0ECD
:1002F8000D6E0D2EFED70C2EFCD70B2EFAD7000054
:10030800000019C01DF01AC01EF051DF8292060EBF
:100318000B6E130E0C6EAD0E0D6E0D2EFED70C2E41
:10032800FCD70B2EFAD7000000001B4A1C2ACAD79C
:020338001200B1
:10033A000900F5CFE6FF0006FBE10106F9E112002C
:10034A00176A186AC26A060EC16EF26A926A806AEF
:10035A00956A836A070E936EFD0E946E829217C099
:10036A001DF018C01EF022DF800E1818006E800ED5
:10037A00005C02E1000E175C49E3800E1818006E5B
:10038A00800E270A005C02E10F0E175C3FE281B083
:10039A0007D0174A182A17C01DF018C01EF006DF2A
:1003AA0081B20FD0000E181802E1000E171804E0EF
:1003BA00010E175E000E185A17C01DF018C01EF065
:1003CA00F5DE81B423D0000E181802E1000E1718CA
:1003DA0018E0010E175E000E185A156A166A800E8A
:1003EA00006E800E1618005C02E11550320808E310
:1003FA0017C01DF018C01EF0D9DE154A162AEFD70D
:10040A00E2D717C019F018C01AF059DFA8D7FFD7DA
:020000040030CA
:0D00010022050EFF0080FF0FC00FE00B4036
:00000001FF
